:100000009DC10000C2C10000C0C10000BEC100000F
:10001000BCC10000BAC10000B8C10000B6C10000F8
:10002000B4C10000B2C10000D2C5000054C6000037
:10003000ACC10000AAC10000A8C10000A6C1000018
:10004000A4C10000A2C10000A0C100009EC1000028
:100050009CC100009AC1000098C1000016C50000B4
:1000600094C1000092C1000090C100008EC1000048
:100070008CC100008AC1000088C1000086C1000058
:1000800084C1000082C1000080C100007EC1000068
:100090007CC100007AC1000078C1000076C1000078
:1000A00074C1000072C1000070C1000000010000B6
:1000B000B602120002000044017400220000610236
:1000C0005500210000560109002201002E023300D4
:1000D0002101006F010900220200B8012100210264
:1000E0000088010900220300D9015500210300A85E
:1000F0000109000300004001040103090400013E5E
:100100003E035400650065006E0073007900200016
:100110004B006500790062006F00610072006400AE
:100120002F004D006F007500730065002F004A001E
:100130006F00790073007400690063006B000000B9
:100140000403090409027400040100C03209040018
:1001500000010301010009211101000122550007DE
:1001600005830308000109040100010301020009DD
:100170002111010001223300070584030800010951
:1001800004020002030000000921110100012221E4
:100190000007058103400001070502032000020952
:1001A0000403000103000000092111010001225590
:1001B00000070585030C000206C9FF0904A15C7550
:1001C00008150026FF0095400975810295200976E3
:1001D000910295040976B102C005010904A1011537
:1001E00000250175019520050919012920810215B5
:1001F0000025073500463B0175049501651405018E
:100200000939814205010901A100150026FF037586
:100210000A950409300931093209358102C01500F7
:1002200026FF03750A9502093609368102C00501C9
:100230000902A101050919012903150025019503EA
:1002400075018102950175058103050109300931A8
:100250001581257F7508950281060938950181066B
:10026000C005010906A10175019508050719E029D6
:10027000E715002501810295087501150025010586
:100280000C09E909EA09E209CD09B509B609B70976
:10029000B881029505750105081901290591029596
:1002A0000175039103950675081500257F0507194B
:1002B00000297F8100C01201000200000040C0162A
:1002C000820405010001000101C13601C02601C1FF
:1002D0000601C10601C116002C5E746061626434BF
:1002E0006667656E362D3738271E1F20212223248E
:1002F00025267333762E77785F4445464748494A2A
:100300004B4C4D4E4F505152535455565758595AC5
:100310005B5C5D2F3130636D350405060708090A03
:100320000B0C0D0E0F101112131415161718191AA5
:100330001B1C1D6F7170752A2E03ED0911241FBE41
:10034000CFEFDAE0DEBFCDBF11E0A0E0B1E0E4E343
:10035000F4E102C005900D92A03FB107D9F722E069
:10036000A0EFB1E001C01D92AE3BB207E1F713E090
:10037000CCE3D3E004C02297FE010E94140AC833E4
:10038000D107C9F7C9D60C94180A3ACE0F931F9318
:10039000CF93DF93EC01FB0101900020E9F7AF015F
:1003A00041505109461B570BE881F9810280F381C6
:1003B000E02D09958C01CE0195D6800F911FDF911C
:1003C000CF911F910F9108952098289A2198299AEA
:1003D00022982A9A23982B9A24982C9AADE7B0E079
:1003E0008C91877F8C9325982D9A8C918F7E8C93FE
:1003F0008098889AEEE7F0E080818E7F80838198F4
:10040000899A80818D7F808384988C9A80818F7E69
:10041000808386988E9A80818F7B808387988F9A3D
:1004200080818F77808326982E9A8C918F7D8C93F4
:10043000089585E992E0DFD186E892E0DCD187E794
:1004400092E0D9D188E692E0D6D189E592E0D3D185
:100450008AE492E0D0D18BE392E0CDD18CE292E0BD
:10046000CAD18DE192E0C7D18EE092E0C4D18FEF86
:1004700091E0C1D180EF91E0BED185E992E014D244
:10048000882329F060E071E08FEA92E07FDF86E860
:1004900092E00AD2882329F068E071E08FEA92E0C6
:1004A00075DF87E792E000D2882329F060E171E0F0
:1004B0008FEA92E06BDF88E692E0F6D1882329F09C
:1004C00068E171E08FEA92E061DF89E592E0ECD1CA
:1004D000882329F060E271E08FEA92E057DF8AE436
:1004E00092E0E2D1882329F068E271E08FEA92E09D
:1004F0004DDF8BE392E0D8D1882329F060E371E0EF
:100500008FEA92E043DF8CE292E0CED1882329F09B
:1005100068E371E08FEA92E039DF8DE192E0C4D1C7
:10052000882329F060E471E08FEA92E02FDF8EE00B
:1005300092E0BAD1882329F068E471E08FEA92E072
:1005400025DF8FEF91E0B0D1882329F060E571E0DD
:100550008FEA92E01BDF80EF91E0A6D1882329F09B
:1005600068E571E08FEA92E011DF85E992E092D1CF
:10057000882329F060E671E08FEA92E007DF86E8E1
:1005800092E088D1882329F06AE671E08FEA92E050
:10059000FDDE87E792E07ED1882329F064E771E0F1
:1005A0008FEA92E0F3DE88E692E074D1882329F0A6
:1005B0006EE771E08FEA92E0E9DE89E592E06AD1C8
:1005C000882329F068E871E08FEA92E0DFDE8AE4B0
:1005D00092E060D1882329F062E971E08FEA92E02D
:1005E000D5DE8BE392E056D1882329F06CE971E0E7
:1005F0008FEA92E0CBDE8CE292E04CD1882329F0A6
:1006000066EA71E08FEA92E0C1DE8DE192E042D1CC
:10061000882329F060EB71E08FEA92E0B7DE8EE08C
:1006200092E038D1882329F06AEB71E08FEA92E0FA
:10063000ADDE8FEF91E02ED1882329F064EC71E0DC
:100640008FEA92E0A3DE80EF91E024D1882329F0A5
:100650006EEC71E08FEA92E099CE08952AE030E0E6
:1006600040E050E060E085E992E058D02AE030E0D8
:1006700040E050E061E086E892E050D02AE030E0CF
:1006800040E050E062E087E792E048D02AE030E0C6
:1006900040E050E063E088E692E040D02AE030E0BD
:1006A00040E050E06DE089E592E038D02AE030E0AB
:1006B00040E050E06EE08AE492E030D02AE030E0A2
:1006C00040E050E065E18BE392E028D02AE030E0A2
:1006D00040E050E064E18CE292E020D02AE030E09B
:1006E00040E050E063E18DE192E018D02AE030E094
:1006F00040E050E061E18EE092E010D02AE030E08E
:1007000040E050E060E18FEF91E008D02AE030E077
:1007100040E050E06FE080EF91E000C0DC01862F08
:1007200014962D933D934D935C93179718961D92B5
:100730001D921D921C921B970FB6F8944091A50232
:100740005091A6026091A7027091A8020FBE4D932E
:100750005D936D937C931397E82FF0E0FED01C9689
:10076000EC931C971D968C9308950F931F93DC01B7
:100770001D96EC911D97F0E0F0D01C968C911C9783
:100780008E17A1F10FB6F8944091A5025091A602E0
:100790006091A7027091A8020FBE0D911D912D913D
:1007A0003C911397401B510B620B730B14960D91E8
:1007B0001D912D913C9117974017510762077307C0
:1007C000A8F00FB6F8944091A5025091A60260914E
:1007D000A7027091A8020FBE4D935D936D937C9319
:1007E00013971C96EC9381E090E002C080E090E0CB
:1007F0001F910F910895CF92DF92EF92FF920F9386
:100800001F93CF93DF93EC01B0DF009781F508854C
:1008100019852A853B85011511052105310581F1D1
:100820000FB6F8944091A5025091A6026091A702DC
:100830007091A8020FBEC880D980EA80FB804C1955
:100840005D096E097F094017510762077307C0F001
:100850000FB6F8944091A5025091A6026091A702AC
:100860007091A8020FBE488359836A837B831886E0
:1008700019861A861B8681E08E8781E090E001C090
:100880001E86DF91CF911F910F91FF90EF90DF9027
:10089000CF900895FC018685882321F081E094851E
:1008A000911101C080E00895FC018685882319F02C
:1008B00081E09485911180E008951DBA109268003E
:1008C0001CBC10BE1FBA10927A0010926E001092DB
:1008D0006F0010927100109272001092C900ECEB40
:1008E000F0E0108214B817B81AB81DB810BA108208
:1008F00015B818B81BB81EB811BA0895F894E1E6F7
:10090000F0E020E8208383E0808384BD85BDEEE6AF
:10091000F0E080818160808381E08093800092E0BC
:100920009093810080939000909391009093C000E9
:1009300094E09093C1008093C2008093C300109212
:10094000C40083E880937A0020937B0010927E009D
:1009500010927D00DFD078940895E93130F4EE0FE5
:10096000EE0FFF27E754FB4F0994EE270895E1E0CF
:100970000895E3B1E170D9F70895E3B1E270B9F7F2
:100980000895E3B1E47099F70895E3B1E87079F759
:100990000895E3B1E07859F70895E9B1E17039F7C6
:1009A0000895E9B1E27019F70895E9B1E470F9F634
:1009B0000895E9B1E870D9F60895E6B1E074B9F6A2
:1009C0000895E6B1E07899F60895E9B1E07479F612
:1009D0000895E9B1E07859F60895E3B1E07139F688
:1009E0000895E3B1E07219F60895E3B1E07429F5D2
:1009F0000895EFB1E07809F50895EFB1E074E9F4F6
:100A00000895EFB1E072C9F40895EFB1E071A9F46F
:100A10000895EFB1E27089F40895EFB1E17069F4DF
:100A20000895E9B1E07149F40895E9B1E07229F45B
:100A30000895ECB1E07409F40895E1E00895F894A4
:100A400084B7877F84BF809160008061809360005D
:100A50001092600084EC99E00197F1F781E08093B7
:100A6000E00080E28093D8008CE49DE10197F1F7EB
:100A700024DF0C94003FFFCFF8941FDF8CE49DE14E
:100A80000197F1F70C940000FFCF8F938FB78F93EE
:100A90008091A402885E8D37D0F48093A402809167
:100AA000A502885F8093A502D8F08091A6028F4F9F
:100AB0008093A602A8F08091A7028F4F8093A7028F
:100AC00078F08091A8028F4F8093A80209C08D57BB
:100AD0008093A4028091A502875F8093A50228F7E6
:100AE0008091A902805E8093A90258F08091AA02A9
:100AF0008F4F8093AA0228F08091AB028F4F809392
:100B0000AB028F918FBF8F9118958091E80080FF85
:100B1000FCCF08958091D80087FF02C085FF56C0A2
:100B200081E08093D70080EA8093D80082E189BD7C
:100B300009B400FEFDCF80E98093D8001092E00058
:100B40001092DA021092D9021092D8021092D002BA
:100B50001092D1021092D2021092D3021092D402BB
:100B60001092D5021092D6021092D70281E08093A3
:100B7000CF029DE79093CE021092CD021092CC024C
:100B80001092CB028093CA021092BE021092BF0252
:100B90001092C0021092C1028FE08093C20290E2D4
:100BA0009093C30280E88093C4021092C50222E0B1
:100BB0002093C60228E02093C7029093C802809336
:100BC000C9021092E1008CE08093E20008951F9228
:100BD0000F920FB60F9211242F938F939F93EF9341
:100BE000FF938091E1001092E10083FF0FC010920B
:100BF000E90091E09093EB001092EC0092E3909367
:100C0000ED0098E09093F0001092DA0282FF44C069
:100C10009091DA02992309F43FC09091D802992368
:100C200091F091509093D80291110DC091E0909362
:100C3000E9009091E80095FF03C01092F100F9CF10
:100C40009AE39093E8009091CE02992329F1909134
:100C5000AD029F5F9093AD029370F1F493E0909397
:100C6000E9009091E80095FF17C09091CD029F5F39
:100C70009093CD022091CE0292130EC01092CD021D
:100C8000E0EDF2E091919093F10092E0E83DF907F8
:100C9000C9F79AE39093E80080FF08C090E1909331
:100CA000E2001092DA0291E09093D9029091D90279
:100CB000992339F084FF05C08DE08093E200109203
:100CC000D902FF91EF919F918F912F910F900FBEBD
:100CD0000F901F9018951F920F920FB60F9211242C
:100CE000EF92FF920F931F932F933F934F935F9336
:100CF0006F937F938F939F93AF93BF93EF93FF93E4
:100D0000CF93DF931F92CDB7DEB71092E9008091A9
:100D1000E80083FFA4C13091F1002091F10000911F
:100D2000F1001091F100E090F100F090F10080915D
:100D3000F1009091F10042EF4093E800263009F075
:100D40003FC04CE0ECEAF0E02591359120173107E7
:100D500011F0359615C0259135912E153F0511F0EE
:100D600033960EC02591359144918F3F910519F02E
:100D700010F08FEF90E0841708F4482F5EEF08C062
:100D8000415011F76CC1481B5093E8004423A9F06F
:100D90008091E800982F9570D9F382FD63C1842F6C
:100DA000413408F080E4982F992369F3F9012591E3
:100DB0002093F1009F019150F7CF803449F352C145
:100DC000253041F48EEF8093E8009FDE00680093A9
:100DD000E30048C12930F1F431113AC00093DA023E
:100DE0001092D8028EEF8093E80081E0E8ECF2E008
:100DF0008093E90095919093EB00992331F09591C0
:100E00009093EC0095919093ED008F5F873081F780
:100E10008EE141C0283039F4303809F041C075DE28
:100E20008091DA0294C0211113C039836EDE3981BA
:100E3000323851F4E092E9008091EB0085FB88277D
:100E400080F91092E90001C080E08093F10076C043
:100E5000422F4D7F413021F5323011F5011511053A
:100E600009F081C04E2D4F775FEF540F573008F0D7
:100E70007AC08EEF8093E8004093E900233009F4B4
:100E8000EEC089E18093EB0081E090E0042E01C088
:100E9000880F0A94EAF78093EA001092EA00E2C011
:100EA000E114F104D1F5313AD1F4213059F42DDEB9
:100EB000E0EDF2E081918093F10022E0E83DF2075D
:100EC000C9F76EC0223021F420DE8091CE023FC0EF
:100ED000233009F0C4C019DE8091CF0238C031320E
:100EE00009F0B4C0293061F48091E80082FFFCCFA2
:100EF0008091F1008093CC028BEF8093E80050C08A
:100F00002A3029F41093CE021092CD0249C02B3022
:100F100009F0A5C00093CF0243C041E0E416F104FC
:100F200059F5313AB9F4213061F4EFDD8091CB020B
:100F30008093F1001092F1001092F1001092F100F4
:100F40002FC0233009F08BC0E0DD8091CA0280936E
:100F5000F10026C0313209F079C02B3009F07FC092
:100F60000093CA021DC0E114F10409F46FC0F1E05E
:100F7000EF16F10409F46AC0E3E0EE16F104A1F4FF
:100F8000313A09F063C0213009F069C0BEDDEEEBF3
:100F9000F2E081918093F10022E0EA3CF207C9F788
:100FA0008EEF8093E8005EC042E0E416F10409F0A1
:100FB0004DC02130F1F4313A09F051C03EEF90912B
:100FC000E800292F2570D9F392FD4CC0982F813469
:100FD00008F090E4292F222321F01092F1002150F3
:100FE000FACF891B3093E8008111E9CF903439F3AF
:100FF00039C0293059F5313291F50115134079F591
:10100000049769F58091E80082FFFCCF3091F100F0
:101010002091F1009091F1008091F1004BEF40930D
:10102000E8004EEF4093E800393A39F42534B9F43A
:10103000923CA9F48B3699F402DD3B3881F4253CCF
:1010400071F49D3161F4803751F408C0293C39F4C2
:10105000303429F48EEF8093E80057DD0DDD81E216
:101060008093EB000F90DF91CF91FF91EF91BF91B3
:10107000AF919F918F917F916F915F914F913F9130
:101080002F911F910F91FF90EF900F900FBE0F9037
:101090001F901895CF92DF92EF92FF920F931F93BC
:1010A000CF93DF936C017A01EB01E60EF71E00E0AF
:1010B00010E0CE15DF0561F06991D601ED91FC914C
:1010C0000190F081E02DC6010995080F191FF1CF9D
:1010D000C801DF91CF911F910F91FF90EF90DF90AA
:1010E000CF900895CF93DF9300D0CDB7DEB72DE03A
:1010F00029832AE02A83DC01ED91FC910280F381AF
:10110000E02D42E050E0BE016F5F7F4F09950F90E8
:101110000F90DF91CF910895F1DB56D98AD9FECF98
:101120008091DA02882371F08FB7F89492E090935F
:10113000E9002BE69091E80095FF03C02093E800BA
:10114000F9CF8FBF1092BD0208952091DA022223B9
:1011500071F12FB7F89431E03093E9003091E40059
:10116000375E41E05091E80055FD0EC02FBF209141
:10117000E4002317E1F02091DA022223C1F02FB717
:10118000F8944093E900EECF6093F1008091E8007D
:1011900085FD06C08AE38093E8001092D80203C060
:1011A00084E08093D8022FBF81E090E0089521E091
:1011B000FC01228380E090E008956032710528F4FC
:1011C0006A30710551F488E208956038710528F499
:1011D000FB01E854FD4F8491089580E008958091CB
:1011E000DA02882309F441C08FB7F89493E0909312
:1011F000E9009091E4009E5C23E03091E80035FD29
:101200000EC08FBF8091DA02882379F18091E400CB
:10121000891759F18FB7F8942093E900EECF909198
:10122000D0029093F1009091D1029093F1009091AF
:10123000D2029093F1009091D3029093F10090919B
:10124000D4029093F1009091D5029093F100909187
:10125000D6029093F1009091D7029093F1009AE317
:101260009093E8001092CD028FBF0895CF93DF9343
:10127000EC0166FD02C080E001C082E08093D002F4
:101280001092D1026F736093D2021092D302109227
:10129000D4021092D5021092D6021092D702CE013B
:1012A0009EDF1092D0021092D202CE01DF91CF9138
:1012B00096CF6111DBCF0895CF93DF93EC0167FDEB
:1012C00003C01B8270E00BC0603CE0F4862F8F737C
:1012D0009B81913051F41B826C817D81682BCE0102
:1012E0006CDF682FCE01E5DF22C0923001F590E47B
:1012F000899FB00111248C819D81862B972B9D8322
:101300008C8309C0603E48F46F7180E4689FB0012F
:1013100011247D836C8381E009C0603F30F46295C5
:10132000607F1C826D8382E001C08FEF8B8381E040
:1013300090E0DF91CF9108959FB7F8948091DA0201
:101340008823C9F082E08093E9002BE68091E800D1
:1013500085FD03C09FBF80E008958091F100811159
:1013600003C02093E800F2CF2091E80025FD03C0E0
:101370002BE62093E8009FBF08952091BD02211124
:1013800009C0DADF882319F08093BD0203C080E032
:1013900090E0089581E090E008952091BD0222231D
:1013A00021F01092BD02822F03C0C6DF882311F006
:1013B00090E008958FEF9FEF08952091BD022223C2
:1013C00011F0822F05C0B8DF882321F08093BD0281
:1013D00090E008958FEF9FEF0895E5EBF2E088E04D
:1013E000DF011D928A95E9F788EE93E0A0E0B0E076
:1013F0008093B8029093B902A093BA02B093BB0253
:1014000084EE91E091838083EFEAF2E086E0DF01F1
:101410001D928A95E9F78CED91E09183808310927B
:10142000AE020895EE0FFF1F0590F491E02D099490
:04143000F894FFCF5E
:101434005120707265737300572070726573730066
:101444004520707265737300522070726573730067
:101454005420707265737300592070726573730041
:101464005520707265737300492070726573730040
:101474004F2070726573730050207072657373002F
:10148400412070726573730053207072657373002A
:10149400512072656C6561736500572072656C65D7
:1014A40061736500452072656C6561736500522047
:1014B40072656C6561736500542072656C65617357
:1014C4006500592072656C6561736500552072650D
:1014D4006C6561736500492072656C6561736500B4
:1014E4004F2072656C6561736500502072656C6590
:1014F40061736500412072656C65617365005320FA
:1015040072656C6561736500000000005C094A083F
:1015140000000000A5084A08BD09CD09DD099008AE
:00000001FF
